:020000040000FA
:04000000FEEFFFF020
:020000040001F9
:10FEEE0012001200120001EE01F10E0EEE6AE8068B
:10FEFE00FDE10001B2EFFFF0000EC66E000E040130
:10FF0E00006F000EBE6EA00E00017F6F000E7D6FA3
:10FF1E001200000E096E000E0A6E000E0B6E000E21
:10FF2E000C6E000E056E000E066E000E076E000EB5
:10FF3E00086E120003011A9F0F1C116E101C126E18
:10FF4E0012C511F5126A1150196F0F50FF0A186F72
:10FF5E00B19E1A8F1200048E77ECFFF090ECFFF03A
:10FF6E0083ECFFF079ECFFF0D5ECFFF0BE9E78EC61
:10FF7E00FFF0000E106E0A0E0F6EA1ECFFF0B150E6
:10FF8E007F0BB118D8B4CEEFFFF0D0EFFFF0C6EF75
:10FF9E00FFF0BE8EBBEFFFF0FEEFFFF00D50D8A4CA
:10FFAE00DBEFFFF0DDEFFFF0E9EFFFF000017D2B5F
:10FFBE007D29D8A4E5EFFFF0E7EFFFF0E9EFFFF0C2
:10FFCE00010E0D6E0D04D8A4EFEFFFF0F1EFFFF070
:10FFDE00FDEFFFF000017D077D51D8A4F9EFFFF092
:10FFEE00FBEFFFF0FDEFFFF0000E0D6E12007AEF4B
:02FFFE00FFF012
:020000040020DA
:10000000FF0FFF0FFF0FFF0FFF0FFF0FFF0FFF0F80
:10001000FF0FFF0FFF0FFF0FFF0FFF0FFF0FFF0F70
:020000040030CA
:0A0000008CFEFFFC9FFFFFFFFFFFD7
:00000001FF
